{
  "_format": "hh-sol-artifact-1",
  "contractName": "SPayLater",
  "sourceName": "contracts/SPayLater.sol",
  "abi": [
    {
      "inputs": [
        {
          "internalType": "address",
          "name": "initialOwner",
          "type": "address"
        }
      ],
      "stateMutability": "nonpayable",
      "type": "constructor"
    },
    {
      "inputs": [],
      "name": "EnforcedPause",
      "type": "error"
    },
    {
      "inputs": [],
      "name": "ExpectedPause",
      "type": "error"
    },
    {
      "inputs": [
        {
          "internalType": "address",
          "name": "owner",
          "type": "address"
        }
      ],
      "name": "OwnableInvalidOwner",
      "type": "error"
    },
    {
      "inputs": [
        {
          "internalType": "address",
          "name": "account",
          "type": "address"
        }
      ],
      "name": "OwnableUnauthorizedAccount",
      "type": "error"
    },
    {
      "inputs": [],
      "name": "ReentrancyGuardReentrantCall",
      "type": "error"
    },
    {
      "anonymous": false,
      "inputs": [
        {
          "indexed": true,
          "internalType": "address",
          "name": "customer",
          "type": "address"
        },
        {
          "indexed": false,
          "internalType": "uint256",
          "name": "newLimit",
          "type": "uint256"
        }
      ],
      "name": "CreditLimitUpdated",
      "type": "event"
    },
    {
      "anonymous": false,
      "inputs": [
        {
          "indexed": true,
          "internalType": "address",
          "name": "customer",
          "type": "address"
        },
        {
          "indexed": false,
          "internalType": "uint256",
          "name": "creditLimit",
          "type": "uint256"
        }
      ],
      "name": "CustomerRegistered",
      "type": "event"
    },
    {
      "anonymous": false,
      "inputs": [
        {
          "indexed": true,
          "internalType": "uint256",
          "name": "transactionId",
          "type": "uint256"
        },
        {
          "indexed": false,
          "internalType": "uint256",
          "name": "feeAmount",
          "type": "uint256"
        }
      ],
      "name": "LateFeeCharged",
      "type": "event"
    },
    {
      "anonymous": false,
      "inputs": [
        {
          "indexed": true,
          "internalType": "address",
          "name": "previousOwner",
          "type": "address"
        },
        {
          "indexed": true,
          "internalType": "address",
          "name": "newOwner",
          "type": "address"
        }
      ],
      "name": "OwnershipTransferred",
      "type": "event"
    },
    {
      "anonymous": false,
      "inputs": [
        {
          "indexed": false,
          "internalType": "address",
          "name": "account",
          "type": "address"
        }
      ],
      "name": "Paused",
      "type": "event"
    },
    {
      "anonymous": false,
      "inputs": [
        {
          "indexed": true,
          "internalType": "uint256",
          "name": "transactionId",
          "type": "uint256"
        },
        {
          "indexed": true,
          "internalType": "address",
          "name": "customer",
          "type": "address"
        },
        {
          "indexed": false,
          "internalType": "uint256",
          "name": "amount",
          "type": "uint256"
        }
      ],
      "name": "PaymentMade",
      "type": "event"
    },
    {
      "anonymous": false,
      "inputs": [
        {
          "indexed": true,
          "internalType": "uint256",
          "name": "transactionId",
          "type": "uint256"
        }
      ],
      "name": "TransactionCancelled",
      "type": "event"
    },
    {
      "anonymous": false,
      "inputs": [
        {
          "indexed": true,
          "internalType": "uint256",
          "name": "transactionId",
          "type": "uint256"
        },
        {
          "indexed": true,
          "internalType": "address",
          "name": "customer",
          "type": "address"
        },
        {
          "indexed": false,
          "internalType": "uint256",
          "name": "amount",
          "type": "uint256"
        }
      ],
      "name": "TransactionCreated",
      "type": "event"
    },
    {
      "anonymous": false,
      "inputs": [
        {
          "indexed": false,
          "internalType": "address",
          "name": "account",
          "type": "address"
        }
      ],
      "name": "Unpaused",
      "type": "event"
    },
    {
      "inputs": [],
      "name": "DEFAULT_CREDIT_LIMIT",
      "outputs": [
        {
          "internalType": "uint256",
          "name": "",
          "type": "uint256"
        }
      ],
      "stateMutability": "view",
      "type": "function"
    },
    {
      "inputs": [],
      "name": "LATE_FEE_RATE",
      "outputs": [
        {
          "internalType": "uint256",
          "name": "",
          "type": "uint256"
        }
      ],
      "stateMutability": "view",
      "type": "function"
    },
    {
      "inputs": [],
      "name": "PAYMENT_PERIOD",
      "outputs": [
        {
          "internalType": "uint256",
          "name": "",
          "type": "uint256"
        }
      ],
      "stateMutability": "view",
      "type": "function"
    },
    {
      "inputs": [
        {
          "internalType": "uint256",
          "name": "_transactionId",
          "type": "uint256"
        }
      ],
      "name": "cancelTransaction",
      "outputs": [],
      "stateMutability": "nonpayable",
      "type": "function"
    },
    {
      "inputs": [
        {
          "internalType": "address",
          "name": "_customer",
          "type": "address"
        },
        {
          "internalType": "uint256",
          "name": "_amount",
          "type": "uint256"
        },
        {
          "internalType": "string",
          "name": "_orderId",
          "type": "string"
        },
        {
          "internalType": "string",
          "name": "_metadata",
          "type": "string"
        }
      ],
      "name": "createTransaction",
      "outputs": [
        {
          "internalType": "uint256",
          "name": "",
          "type": "uint256"
        }
      ],
      "stateMutability": "nonpayable",
      "type": "function"
    },
    {
      "inputs": [
        {
          "internalType": "address",
          "name": "",
          "type": "address"
        },
        {
          "internalType": "uint256",
          "name": "",
          "type": "uint256"
        }
      ],
      "name": "customerTransactions",
      "outputs": [
        {
          "internalType": "uint256",
          "name": "",
          "type": "uint256"
        }
      ],
      "stateMutability": "view",
      "type": "function"
    },
    {
      "inputs": [
        {
          "internalType": "address",
          "name": "",
          "type": "address"
        }
      ],
      "name": "customers",
      "outputs": [
        {
          "internalType": "address",
          "name": "walletAddress",
          "type": "address"
        },
        {
          "internalType": "uint256",
          "name": "creditLimit",
          "type": "uint256"
        },
        {
          "internalType": "uint256",
          "name": "availableCredit",
          "type": "uint256"
        },
        {
          "internalType": "uint256",
          "name": "usedCredit",
          "type": "uint256"
        },
        {
          "internalType": "bool",
          "name": "isActive",
          "type": "bool"
        },
        {
          "internalType": "uint256",
          "name": "totalTransactions",
          "type": "uint256"
        },
        {
          "internalType": "uint256",
          "name": "totalPaid",
          "type": "uint256"
        },
        {
          "internalType": "uint256",
          "name": "totalOverdue",
          "type": "uint256"
        }
      ],
      "stateMutability": "view",
      "type": "function"
    },
    {
      "inputs": [
        {
          "internalType": "address",
          "name": "_customer",
          "type": "address"
        }
      ],
      "name": "getCustomerInfo",
      "outputs": [
        {
          "internalType": "uint256",
          "name": "creditLimit",
          "type": "uint256"
        },
        {
          "internalType": "uint256",
          "name": "availableCredit",
          "type": "uint256"
        },
        {
          "internalType": "uint256",
          "name": "usedCredit",
          "type": "uint256"
        },
        {
          "internalType": "uint256",
          "name": "totalTransactions",
          "type": "uint256"
        },
        {
          "internalType": "uint256",
          "name": "totalPaid",
          "type": "uint256"
        },
        {
          "internalType": "uint256",
          "name": "totalOverdue",
          "type": "uint256"
        }
      ],
      "stateMutability": "view",
      "type": "function"
    },
    {
      "inputs": [
        {
          "internalType": "address",
          "name": "_customer",
          "type": "address"
        }
      ],
      "name": "getCustomerTransactions",
      "outputs": [
        {
          "internalType": "uint256[]",
          "name": "",
          "type": "uint256[]"
        }
      ],
      "stateMutability": "view",
      "type": "function"
    },
    {
      "inputs": [
        {
          "internalType": "uint256",
          "name": "_transactionId",
          "type": "uint256"
        }
      ],
      "name": "getTransaction",
      "outputs": [
        {
          "internalType": "address",
          "name": "customer",
          "type": "address"
        },
        {
          "internalType": "uint256",
          "name": "amount",
          "type": "uint256"
        },
        {
          "internalType": "uint256",
          "name": "purchaseDate",
          "type": "uint256"
        },
        {
          "internalType": "uint256",
          "name": "dueDate",
          "type": "uint256"
        },
        {
          "internalType": "uint256",
          "name": "paidAmount",
          "type": "uint256"
        },
        {
          "internalType": "enum SPayLater.TransactionStatus",
          "name": "status",
          "type": "uint8"
        },
        {
          "internalType": "string",
          "name": "orderId",
          "type": "string"
        }
      ],
      "stateMutability": "view",
      "type": "function"
    },
    {
      "inputs": [
        {
          "internalType": "uint256",
          "name": "_transactionId",
          "type": "uint256"
        }
      ],
      "name": "isOverdue",
      "outputs": [
        {
          "internalType": "bool",
          "name": "",
          "type": "bool"
        }
      ],
      "stateMutability": "view",
      "type": "function"
    },
    {
      "inputs": [
        {
          "internalType": "uint256",
          "name": "_transactionId",
          "type": "uint256"
        }
      ],
      "name": "makePayment",
      "outputs": [],
      "stateMutability": "payable",
      "type": "function"
    },
    {
      "inputs": [],
      "name": "owner",
      "outputs": [
        {
          "internalType": "address",
          "name": "",
          "type": "address"
        }
      ],
      "stateMutability": "view",
      "type": "function"
    },
    {
      "inputs": [],
      "name": "pause",
      "outputs": [],
      "stateMutability": "nonpayable",
      "type": "function"
    },
    {
      "inputs": [],
      "name": "paused",
      "outputs": [
        {
          "internalType": "bool",
          "name": "",
          "type": "bool"
        }
      ],
      "stateMutability": "view",
      "type": "function"
    },
    {
      "inputs": [
        {
          "internalType": "address",
          "name": "_customer",
          "type": "address"
        }
      ],
      "name": "registerCustomer",
      "outputs": [],
      "stateMutability": "nonpayable",
      "type": "function"
    },
    {
      "inputs": [],
      "name": "renounceOwnership",
      "outputs": [],
      "stateMutability": "nonpayable",
      "type": "function"
    },
    {
      "inputs": [],
      "name": "transactionCounter",
      "outputs": [
        {
          "internalType": "uint256",
          "name": "",
          "type": "uint256"
        }
      ],
      "stateMutability": "view",
      "type": "function"
    },
    {
      "inputs": [
        {
          "internalType": "uint256",
          "name": "",
          "type": "uint256"
        }
      ],
      "name": "transactions",
      "outputs": [
        {
          "internalType": "uint256",
          "name": "id",
          "type": "uint256"
        },
        {
          "internalType": "address",
          "name": "customer",
          "type": "address"
        },
        {
          "internalType": "uint256",
          "name": "amount",
          "type": "uint256"
        },
        {
          "internalType": "uint256",
          "name": "purchaseDate",
          "type": "uint256"
        },
        {
          "internalType": "uint256",
          "name": "dueDate",
          "type": "uint256"
        },
        {
          "internalType": "uint256",
          "name": "paidAmount",
          "type": "uint256"
        },
        {
          "internalType": "enum SPayLater.TransactionStatus",
          "name": "status",
          "type": "uint8"
        },
        {
          "internalType": "string",
          "name": "orderId",
          "type": "string"
        },
        {
          "internalType": "string",
          "name": "metadata",
          "type": "string"
        }
      ],
      "stateMutability": "view",
      "type": "function"
    },
    {
      "inputs": [
        {
          "internalType": "address",
          "name": "newOwner",
          "type": "address"
        }
      ],
      "name": "transferOwnership",
      "outputs": [],
      "stateMutability": "nonpayable",
      "type": "function"
    },
    {
      "inputs": [],
      "name": "unpause",
      "outputs": [],
      "stateMutability": "nonpayable",
      "type": "function"
    },
    {
      "inputs": [
        {
          "internalType": "address",
          "name": "_customer",
          "type": "address"
        },
        {
          "internalType": "uint256",
          "name": "_newLimit",
          "type": "uint256"
        }
      ],
      "name": "updateCreditLimit",
      "outputs": [],
      "stateMutability": "nonpayable",
      "type": "function"
    },
    {
      "inputs": [],
      "name": "withdraw",
      "outputs": [],
      "stateMutability": "nonpayable",
      "type": "function"
    },
    {
      "stateMutability": "payable",
      "type": "receive"
    }
  ],
  "bytecode": "0x60806040523480156200001157600080fd5b506040516200341f3803806200341f833981810160405281019062000037919062000203565b80600073ffffffffffffffffffffffffffffffffffffffff168173ffffffffffffffffffffffffffffffffffffffff1603620000ad5760006040517f1e4fbdf7000000000000000000000000000000000000000000000000000000008152600401620000a4919062000246565b60405180910390fd5b620000be81620000d560201b60201c565b506001808190555060006006819055505062000263565b60008060009054906101000a900473ffffffffffffffffffffffffffffffffffffffff169050816000806101000a81548173ffffffffffffffffffffffffffffffffffffffff021916908373ffffffffffffffffffffffffffffffffffffffff1602179055508173ffffffffffffffffffffffffffffffffffffffff168173ffffffffffffffffffffffffffffffffffffffff167f8be0079c531659141344cd1fd0a4f28419497f9722a3daafe3b4186f6b6457e060405160405180910390a35050565b600080fd5b600073ffffffffffffffffffffffffffffffffffffffff82169050919050565b6000620001cb826200019e565b9050919050565b620001dd81620001be565b8114620001e957600080fd5b50565b600081519050620001fd81620001d2565b92915050565b6000602082840312156200021c576200021b62000199565b5b60006200022c84828501620001ec565b91505092915050565b6200024081620001be565b82525050565b60006020820190506200025d600083018462000235565b92915050565b6131ac80620002736000396000f3fe6080604052600436106101445760003560e01c806353d8e2f9116100b65780639ace38c21161006f5780639ace38c21461041d5780639c8c711514610462578063b32054101461049f578063c6223c89146104e1578063d22a0d0f1461050a578063f2fde38b146105475761014b565b806353d8e2f9146103335780635c975abb14610370578063715018a61461039b5780637520320f146103b25780638456cb59146103db5780638da5cb5b146103f25761014b565b80633380c0d8116101085780633380c0d81461024057806333ea3dc8146102695780633ccfd60b146102ac5780633f4ba83a146102c357806348ce3a75146102da5780635114cb52146103175761014b565b8063022977b11461015057806311661e3e1461017b57806314e887e8146101a6578063200ca6ef146101d1578063336989ae146101fc5761014b565b3661014b57005b600080fd5b34801561015c57600080fd5b50610165610570565b604051610172919061215b565b60405180910390f35b34801561018757600080fd5b50610190610577565b60405161019d919061215b565b60405180910390f35b3480156101b257600080fd5b506101bb61057c565b6040516101c8919061215b565b60405180910390f35b3480156101dd57600080fd5b506101e6610582565b6040516101f3919061215b565b60405180910390f35b34801561020857600080fd5b50610223600480360381019061021e91906121e8565b610589565b60405161023798979695949392919061223f565b60405180910390f35b34801561024c57600080fd5b50610267600480360381019061026291906122e9565b6105fe565b005b34801561027557600080fd5b50610290600480360381019061028b91906122e9565b610799565b6040516102a3979695949392919061241d565b60405180910390f35b3480156102b857600080fd5b506102c16109eb565b005b3480156102cf57600080fd5b506102d8610a8c565b005b3480156102e657600080fd5b5061030160048036038101906102fc91906125c8565b610a9e565b60405161030e919061215b565b60405180910390f35b610331600480360381019061032c91906122e9565b610efb565b005b34801561033f57600080fd5b5061035a600480360381019061035591906121e8565b611416565b6040516103679190612725565b60405180910390f35b34801561037c57600080fd5b506103856114ad565b6040516103929190612747565b60405180910390f35b3480156103a757600080fd5b506103b06114c4565b005b3480156103be57600080fd5b506103d960048036038101906103d491906121e8565b6114d8565b005b3480156103e757600080fd5b506103f0611706565b005b3480156103fe57600080fd5b50610407611718565b6040516104149190612762565b60405180910390f35b34801561042957600080fd5b50610444600480360381019061043f91906122e9565b611741565b6040516104599998979695949392919061277d565b60405180910390f35b34801561046e57600080fd5b5061048960048036038101906104849190612818565b6118cc565b604051610496919061215b565b60405180910390f35b3480156104ab57600080fd5b506104c660048036038101906104c191906121e8565b6118fd565b6040516104d896959493929190612858565b60405180910390f35b3480156104ed57600080fd5b5061050860048036038101906105039190612818565b611a36565b005b34801561051657600080fd5b50610531600480360381019061052c91906122e9565b611b84565b60405161053e9190612747565b60405180910390f35b34801561055357600080fd5b5061056e600480360381019061056991906121e8565b611dd3565b005b621e848081565b600581565b60065481565b62278d0081565b60036020528060005260406000206000915090508060000160009054906101000a900473ffffffffffffffffffffffffffffffffffffffff16908060010154908060020154908060030154908060040160009054906101000a900460ff16908060050154908060060154908060070154905088565b610606611e59565b60006004600083815260200190815260200160002090506000600481111561063157610630612316565b5b8160060160009054906101000a900460ff16600481111561065557610654612316565b5b14610695576040517f08c379a000000000000000000000000000000000000000000000000000000000815260040161068c9061292b565b60405180910390fd5b6000600360008360010160009054906101000a900473ffffffffffffffffffffffffffffffffffffffff1673ffffffffffffffffffffffffffffffffffffffff1673ffffffffffffffffffffffffffffffffffffffff16815260200190815260200160002090508160020154816003016000828254610714919061297a565b92505081905550816002015481600201600082825461073391906129ae565b9250508190555060048260060160006101000a81548160ff0219169083600481111561076257610761612316565b5b0217905550827f956fb32199d8b882b2039a14e1be35ab14f7a80b9089fc223f14b43937173e6060405160405180910390a2505050565b60008060008060008060606000600460008a815260200190815260200160002060405180610120016040529081600082015481526020016001820160009054906101000a900473ffffffffffffffffffffffffffffffffffffffff1673ffffffffffffffffffffffffffffffffffffffff1673ffffffffffffffffffffffffffffffffffffffff168152602001600282015481526020016003820154815260200160048201548152602001600582015481526020016006820160009054906101000a900460ff16600481111561087257610871612316565b5b600481111561088457610883612316565b5b815260200160078201805461089890612a11565b80601f01602080910402602001604051908101604052809291908181526020018280546108c490612a11565b80156109115780601f106108e657610100808354040283529160200191610911565b820191906000526020600020905b8154815290600101906020018083116108f457829003601f168201915b5050505050815260200160088201805461092a90612a11565b80601f016020809104026020016040519081016040528092919081815260200182805461095690612a11565b80156109a35780601f10610978576101008083540402835291602001916109a3565b820191906000526020600020905b81548152906001019060200180831161098657829003601f168201915b505050505081525050905080602001518160400151826060015183608001518460a001518560c001518660e00151975097509750975097509750975050919395979092949650565b6109f3611e59565b600047905060008111610a3b576040517f08c379a0000000000000000000000000000000000000000000000000000000008152600401610a3290612a8e565b60405180910390fd5b610a43611718565b73ffffffffffffffffffffffffffffffffffffffff166108fc829081150290604051600060405180830381858888f19350505050158015610a88573d6000803e3d6000fd5b5050565b610a94611e59565b610a9c611ee0565b565b6000610aa8611e59565b610ab0611f43565b610ab8611f84565b600360008673ffffffffffffffffffffffffffffffffffffffff1673ffffffffffffffffffffffffffffffffffffffff16815260200190815260200160002060040160009054906101000a900460ff16610b47576040517f08c379a0000000000000000000000000000000000000000000000000000000008152600401610b3e90612afa565b60405180910390fd5b60008411610b8a576040517f08c379a0000000000000000000000000000000000000000000000000000000008152600401610b8190612b66565b60405180910390fd5b83600360008773ffffffffffffffffffffffffffffffffffffffff1673ffffffffffffffffffffffffffffffffffffffff168152602001908152602001600020600201541015610c0f576040517f08c379a0000000000000000000000000000000000000000000000000000000008152600401610c0690612bd2565b60405180910390fd5b60066000815480929190610c2290612bf2565b9190505550600060065490506000429050600062278d0082610c4491906129ae565b90506040518061012001604052808481526020018973ffffffffffffffffffffffffffffffffffffffff1681526020018881526020018381526020018281526020016000815260200160006004811115610ca157610ca0612316565b5b815260200187815260200186815250600460008581526020019081526020016000206000820151816000015560208201518160010160006101000a81548173ffffffffffffffffffffffffffffffffffffffff021916908373ffffffffffffffffffffffffffffffffffffffff16021790555060408201518160020155606082015181600301556080820151816004015560a0820151816005015560c08201518160060160006101000a81548160ff02191690836004811115610d6757610d66612316565b5b021790555060e0820151816007019081610d819190612de6565b50610100820151816008019081610d989190612de6565b509050506000600360008a73ffffffffffffffffffffffffffffffffffffffff1673ffffffffffffffffffffffffffffffffffffffff168152602001908152602001600020905087816003016000828254610df391906129ae565b9250508190555087816002016000828254610e0e919061297a565b92505081905550806005016000815480929190610e2a90612bf2565b9190505550600560008a73ffffffffffffffffffffffffffffffffffffffff1673ffffffffffffffffffffffffffffffffffffffff1681526020019081526020016000208490806001815401808255809150506001900390600052602060002001600090919091909150558873ffffffffffffffffffffffffffffffffffffffff16847ffd27d176b6ebb21e0182c0e43df5818e0d632867e1eb47c383c58d221205fce38a604051610edc919061215b565b60405180910390a383945050505050610ef3611fca565b949350505050565b610f03611f84565b60006004600083815260200190815260200160002090503373ffffffffffffffffffffffffffffffffffffffff168160010160009054906101000a900473ffffffffffffffffffffffffffffffffffffffff1673ffffffffffffffffffffffffffffffffffffffff1614610fac576040517f08c379a0000000000000000000000000000000000000000000000000000000008152600401610fa390612f04565b60405180910390fd5b60026004811115610fc057610fbf612316565b5b8160060160009054906101000a900460ff166004811115610fe457610fe3612316565b5b03611024576040517f08c379a000000000000000000000000000000000000000000000000000000000815260040161101b90612f70565b60405180910390fd5b60048081111561103757611036612316565b5b8160060160009054906101000a900460ff16600481111561105b5761105a612316565b5b0361109b576040517f08c379a000000000000000000000000000000000000000000000000000000000815260040161109290612fdc565b60405180910390fd5b60003490506000826005015483600201546110b6919061297a565b90508260040154421180156111015750600360048111156110da576110d9612316565b5b8360060160009054906101000a900460ff1660048111156110fe576110fd612316565b5b14155b156111fe57600060646005836111179190612ffc565b611121919061306d565b90508084600201600082825461113791906129ae565b9250508190555060038460060160006101000a81548160ff0219169083600481111561116657611165612316565b5b021790555081600360003373ffffffffffffffffffffffffffffffffffffffff1673ffffffffffffffffffffffffffffffffffffffff16815260200190815260200160002060070160008282546111bd91906129ae565b92505081905550847fdb439d57b5fdab72cfc919e816e5bfbe7938ee9727a0846b5acc2fc9340e19a2826040516111f4919061215b565b60405180910390a2505b80821115611241576040517f08c379a0000000000000000000000000000000000000000000000000000000008152600401611238906130ea565b60405180910390fd5b8183600501600082825461125591906129ae565b92505081905550826002015483600501541061129d5760028360060160006101000a81548160ff0219169083600481111561129357611292612316565b5b02179055506112cb565b60018360060160006101000a81548160ff021916908360048111156112c5576112c4612316565b5b02179055505b6000600360003373ffffffffffffffffffffffffffffffffffffffff1673ffffffffffffffffffffffffffffffffffffffff16815260200190815260200160002090508281600601600082825461132291906129ae565b925050819055508281600301600082825461133d919061297a565b925050819055508281600201600082825461135891906129ae565b925050819055506003600481111561137357611372612316565b5b8460060160009054906101000a900460ff16600481111561139757611396612316565b5b036113b857828160070160008282546113b0919061297a565b925050819055505b3373ffffffffffffffffffffffffffffffffffffffff16857f61ac8e9b735e72d1382cbf7d35f2ff3764dae09d7faf7d90787bf7f9ae76e4c8856040516113ff919061215b565b60405180910390a350505050611413611fca565b50565b6060600560008373ffffffffffffffffffffffffffffffffffffffff1673ffffffffffffffffffffffffffffffffffffffff1681526020019081526020016000208054806020026020016040519081016040528092919081815260200182805480156114a157602002820191906000526020600020905b81548152602001906001019080831161148d575b50505050509050919050565b6000600260009054906101000a900460ff16905090565b6114cc611e59565b6114d66000611fd3565b565b6114e0611e59565b600360008273ffffffffffffffffffffffffffffffffffffffff1673ffffffffffffffffffffffffffffffffffffffff16815260200190815260200160002060040160009054906101000a900460ff1615611570576040517f08c379a000000000000000000000000000000000000000000000000000000000815260040161156790613156565b60405180910390fd5b6040518061010001604052808273ffffffffffffffffffffffffffffffffffffffff168152602001621e84808152602001621e848081526020016000815260200160011515815260200160008152602001600081526020016000815250600360008373ffffffffffffffffffffffffffffffffffffffff1673ffffffffffffffffffffffffffffffffffffffff16815260200190815260200160002060008201518160000160006101000a81548173ffffffffffffffffffffffffffffffffffffffff021916908373ffffffffffffffffffffffffffffffffffffffff16021790555060208201518160010155604082015181600201556060820151816003015560808201518160040160006101000a81548160ff02191690831515021790555060a0820151816005015560c0820151816006015560e082015181600701559050508073ffffffffffffffffffffffffffffffffffffffff167f3e2e23ad95ac9d48f62299dd498880d0e69059ed54888b0b71031dc2615f9a60621e84806040516116fb919061215b565b60405180910390a250565b61170e611e59565b611716612097565b565b60008060009054906101000a900473ffffffffffffffffffffffffffffffffffffffff16905090565b60046020528060005260406000206000915090508060000154908060010160009054906101000a900473ffffffffffffffffffffffffffffffffffffffff16908060020154908060030154908060040154908060050154908060060160009054906101000a900460ff16908060070180546117bb90612a11565b80601f01602080910402602001604051908101604052809291908181526020018280546117e790612a11565b80156118345780601f1061180957610100808354040283529160200191611834565b820191906000526020600020905b81548152906001019060200180831161181757829003601f168201915b50505050509080600801805461184990612a11565b80601f016020809104026020016040519081016040528092919081815260200182805461187590612a11565b80156118c25780601f10611897576101008083540402835291602001916118c2565b820191906000526020600020905b8154815290600101906020018083116118a557829003601f168201915b5050505050905089565b600560205281600052604060002081815481106118e857600080fd5b90600052602060002001600091509150505481565b6000806000806000806000600360008973ffffffffffffffffffffffffffffffffffffffff1673ffffffffffffffffffffffffffffffffffffffff168152602001908152602001600020604051806101000160405290816000820160009054906101000a900473ffffffffffffffffffffffffffffffffffffffff1673ffffffffffffffffffffffffffffffffffffffff1673ffffffffffffffffffffffffffffffffffffffff1681526020016001820154815260200160028201548152602001600382015481526020016004820160009054906101000a900460ff16151515158152602001600582015481526020016006820154815260200160078201548152505090508060200151816040015182606001518360a001518460c001518560e001519650965096509650965096505091939550919395565b611a3e611e59565b600360008373ffffffffffffffffffffffffffffffffffffffff1673ffffffffffffffffffffffffffffffffffffffff16815260200190815260200160002060040160009054906101000a900460ff16611acd576040517f08c379a0000000000000000000000000000000000000000000000000000000008152600401611ac490612afa565b60405180910390fd5b6000600360008473ffffffffffffffffffffffffffffffffffffffff1673ffffffffffffffffffffffffffffffffffffffff1681526020019081526020016000209050818160010181905550806003015482611b29919061297a565b81600201819055508273ffffffffffffffffffffffffffffffffffffffff167fd659a89134780b6c2dc78cb7ad2468b7f3c587d41134933a17c82eb519f7537a83604051611b77919061215b565b60405180910390a2505050565b6000806004600084815260200190815260200160002060405180610120016040529081600082015481526020016001820160009054906101000a900473ffffffffffffffffffffffffffffffffffffffff1673ffffffffffffffffffffffffffffffffffffffff1673ffffffffffffffffffffffffffffffffffffffff168152602001600282015481526020016003820154815260200160048201548152602001600582015481526020016006820160009054906101000a900460ff166004811115611c5357611c52612316565b5b6004811115611c6557611c64612316565b5b8152602001600782018054611c7990612a11565b80601f0160208091040260200160405190810160405280929190818152602001828054611ca590612a11565b8015611cf25780601f10611cc757610100808354040283529160200191611cf2565b820191906000526020600020905b815481529060010190602001808311611cd557829003601f168201915b50505050508152602001600882018054611d0b90612a11565b80601f0160208091040260200160405190810160405280929190818152602001828054611d3790612a11565b8015611d845780601f10611d5957610100808354040283529160200191611d84565b820191906000526020600020905b815481529060010190602001808311611d6757829003601f168201915b5050505050815250509050806080015142118015611dcb575060026004811115611db157611db0612316565b5b8160c001516004811115611dc857611dc7612316565b5b14155b915050919050565b611ddb611e59565b600073ffffffffffffffffffffffffffffffffffffffff168173ffffffffffffffffffffffffffffffffffffffff1603611e4d5760006040517f1e4fbdf7000000000000000000000000000000000000000000000000000000008152600401611e449190612762565b60405180910390fd5b611e5681611fd3565b50565b611e616120fa565b73ffffffffffffffffffffffffffffffffffffffff16611e7f611718565b73ffffffffffffffffffffffffffffffffffffffff1614611ede57611ea26120fa565b6040517f118cdaa7000000000000000000000000000000000000000000000000000000008152600401611ed59190612762565b60405180910390fd5b565b611ee8612102565b6000600260006101000a81548160ff0219169083151502179055507f5db9ee0a495bf2e6ff9c91a7834c1ba4fdd244a5e8aa4e537bd38aeae4b073aa611f2c6120fa565b604051611f399190612762565b60405180910390a1565b611f4b6114ad565b15611f82576040517fd93c066500000000000000000000000000000000000000000000000000000000815260040160405180910390fd5b565b600260015403611fc0576040517f3ee5aeb500000000000000000000000000000000000000000000000000000000815260040160405180910390fd5b6002600181905550565b60018081905550565b60008060009054906101000a900473ffffffffffffffffffffffffffffffffffffffff169050816000806101000a81548173ffffffffffffffffffffffffffffffffffffffff021916908373ffffffffffffffffffffffffffffffffffffffff1602179055508173ffffffffffffffffffffffffffffffffffffffff168173ffffffffffffffffffffffffffffffffffffffff167f8be0079c531659141344cd1fd0a4f28419497f9722a3daafe3b4186f6b6457e060405160405180910390a35050565b61209f611f43565b6001600260006101000a81548160ff0219169083151502179055507f62e78cea01bee320cd4e420270b5ea74000d11b0c9f74754ebdbfc544b05a2586120e36120fa565b6040516120f09190612762565b60405180910390a1565b600033905090565b61210a6114ad565b612140576040517f8dfc202b00000000000000000000000000000000000000000000000000000000815260040160405180910390fd5b565b6000819050919050565b61215581612142565b82525050565b6000602082019050612170600083018461214c565b92915050565b6000604051905090565b600080fd5b600080fd5b600073ffffffffffffffffffffffffffffffffffffffff82169050919050565b60006121b58261218a565b9050919050565b6121c5816121aa565b81146121d057600080fd5b50565b6000813590506121e2816121bc565b92915050565b6000602082840312156121fe576121fd612180565b5b600061220c848285016121d3565b91505092915050565b61221e816121aa565b82525050565b60008115159050919050565b61223981612224565b82525050565b600061010082019050612255600083018b612215565b612262602083018a61214c565b61226f604083018961214c565b61227c606083018861214c565b6122896080830187612230565b61229660a083018661214c565b6122a360c083018561214c565b6122b060e083018461214c565b9998505050505050505050565b6122c681612142565b81146122d157600080fd5b50565b6000813590506122e3816122bd565b92915050565b6000602082840312156122ff576122fe612180565b5b600061230d848285016122d4565b91505092915050565b7f4e487b7100000000000000000000000000000000000000000000000000000000600052602160045260246000fd5b6005811061235657612355612316565b5b50565b600081905061236782612345565b919050565b600061237782612359565b9050919050565b6123878161236c565b82525050565b600081519050919050565b600082825260208201905092915050565b60005b838110156123c75780820151818401526020810190506123ac565b60008484015250505050565b6000601f19601f8301169050919050565b60006123ef8261238d565b6123f98185612398565b93506124098185602086016123a9565b612412816123d3565b840191505092915050565b600060e082019050612432600083018a612215565b61243f602083018961214c565b61244c604083018861214c565b612459606083018761214c565b612466608083018661214c565b61247360a083018561237e565b81810360c083015261248581846123e4565b905098975050505050505050565b600080fd5b600080fd5b7f4e487b7100000000000000000000000000000000000000000000000000000000600052604160045260246000fd5b6124d5826123d3565b810181811067ffffffffffffffff821117156124f4576124f361249d565b5b80604052505050565b6000612507612176565b905061251382826124cc565b919050565b600067ffffffffffffffff8211156125335761253261249d565b5b61253c826123d3565b9050602081019050919050565b82818337600083830152505050565b600061256b61256684612518565b6124fd565b90508281526020810184848401111561258757612586612498565b5b612592848285612549565b509392505050565b600082601f8301126125af576125ae612493565b5b81356125bf848260208601612558565b91505092915050565b600080600080608085870312156125e2576125e1612180565b5b60006125f0878288016121d3565b9450506020612601878288016122d4565b935050604085013567ffffffffffffffff81111561262257612621612185565b5b61262e8782880161259a565b925050606085013567ffffffffffffffff81111561264f5761264e612185565b5b61265b8782880161259a565b91505092959194509250565b600081519050919050565b600082825260208201905092915050565b6000819050602082019050919050565b61269c81612142565b82525050565b60006126ae8383612693565b60208301905092915050565b6000602082019050919050565b60006126d282612667565b6126dc8185612672565b93506126e783612683565b8060005b838110156127185781516126ff88826126a2565b975061270a836126ba565b9250506001810190506126eb565b5085935050505092915050565b6000602082019050818103600083015261273f81846126c7565b905092915050565b600060208201905061275c6000830184612230565b92915050565b60006020820190506127776000830184612215565b92915050565b600061012082019050612793600083018c61214c565b6127a0602083018b612215565b6127ad604083018a61214c565b6127ba606083018961214c565b6127c7608083018861214c565b6127d460a083018761214c565b6127e160c083018661237e565b81810360e08301526127f381856123e4565b905081810361010083015261280881846123e4565b90509a9950505050505050505050565b6000806040838503121561282f5761282e612180565b5b600061283d858286016121d3565b925050602061284e858286016122d4565b9150509250929050565b600060c08201905061286d600083018961214c565b61287a602083018861214c565b612887604083018761214c565b612894606083018661214c565b6128a1608083018561214c565b6128ae60a083018461214c565b979650505050505050565b7f43616e206f6e6c792063616e63656c2070656e64696e67207472616e7361637460008201527f696f6e7300000000000000000000000000000000000000000000000000000000602082015250565b6000612915602483612398565b9150612920826128b9565b604082019050919050565b6000602082019050818103600083015261294481612908565b9050919050565b7f4e487b7100000000000000000000000000000000000000000000000000000000600052601160045260246000fd5b600061298582612142565b915061299083612142565b92508282039050818111156129a8576129a761294b565b5b92915050565b60006129b982612142565b91506129c483612142565b92508282019050808211156129dc576129db61294b565b5b92915050565b7f4e487b7100000000000000000000000000000000000000000000000000000000600052602260045260246000fd5b60006002820490506001821680612a2957607f821691505b602082108103612a3c57612a3b6129e2565b5b50919050565b7f4e6f2066756e647320746f207769746864726177000000000000000000000000600082015250565b6000612a78601483612398565b9150612a8382612a42565b602082019050919050565b60006020820190508181036000830152612aa781612a6b565b9050919050565b7f437573746f6d6572206e6f742061637469766500000000000000000000000000600082015250565b6000612ae4601383612398565b9150612aef82612aae565b602082019050919050565b60006020820190508181036000830152612b1381612ad7565b9050919050565b7f416d6f756e74206d7573742062652067726561746572207468616e2030000000600082015250565b6000612b50601d83612398565b9150612b5b82612b1a565b602082019050919050565b60006020820190508181036000830152612b7f81612b43565b9050919050565b7f496e73756666696369656e742063726564697400000000000000000000000000600082015250565b6000612bbc601383612398565b9150612bc782612b86565b602082019050919050565b60006020820190508181036000830152612beb81612baf565b9050919050565b6000612bfd82612142565b91507fffffffffffffffffffffffffffffffffffffffffffffffffffffffffffffffff8203612c2f57612c2e61294b565b5b600182019050919050565b60008190508160005260206000209050919050565b60006020601f8301049050919050565b600082821b905092915050565b600060088302612c9c7fffffffffffffffffffffffffffffffffffffffffffffffffffffffffffffffff82612c5f565b612ca68683612c5f565b95508019841693508086168417925050509392505050565b6000819050919050565b6000612ce3612cde612cd984612142565b612cbe565b612142565b9050919050565b6000819050919050565b612cfd83612cc8565b612d11612d0982612cea565b848454612c6c565b825550505050565b600090565b612d26612d19565b612d31818484612cf4565b505050565b5b81811015612d5557612d4a600082612d1e565b600181019050612d37565b5050565b601f821115612d9a57612d6b81612c3a565b612d7484612c4f565b81016020851015612d83578190505b612d97612d8f85612c4f565b830182612d36565b50505b505050565b600082821c905092915050565b6000612dbd60001984600802612d9f565b1980831691505092915050565b6000612dd68383612dac565b9150826002028217905092915050565b612def8261238d565b67ffffffffffffffff811115612e0857612e0761249d565b5b612e128254612a11565b612e1d828285612d59565b600060209050601f831160018114612e505760008415612e3e578287015190505b612e488582612dca565b865550612eb0565b601f198416612e5e86612c3a565b60005b82811015612e8657848901518255600182019150602085019450602081019050612e61565b86831015612ea35784890151612e9f601f891682612dac565b8355505b6001600288020188555050505b505050505050565b7f4e6f74207472616e73616374696f6e206f776e65720000000000000000000000600082015250565b6000612eee601583612398565b9150612ef982612eb8565b602082019050919050565b60006020820190508181036000830152612f1d81612ee1565b9050919050565b7f416c726561647920706169640000000000000000000000000000000000000000600082015250565b6000612f5a600c83612398565b9150612f6582612f24565b602082019050919050565b60006020820190508181036000830152612f8981612f4d565b9050919050565b7f5472616e73616374696f6e2063616e63656c6c65640000000000000000000000600082015250565b6000612fc6601583612398565b9150612fd182612f90565b602082019050919050565b60006020820190508181036000830152612ff581612fb9565b9050919050565b600061300782612142565b915061301283612142565b925082820261302081612142565b915082820484148315176130375761303661294b565b5b5092915050565b7f4e487b7100000000000000000000000000000000000000000000000000000000600052601260045260246000fd5b600061307882612142565b915061308383612142565b9250826130935761309261303e565b5b828204905092915050565b7f5061796d656e7420657863656564732072656d61696e696e6720616d6f756e74600082015250565b60006130d4602083612398565b91506130df8261309e565b602082019050919050565b60006020820190508181036000830152613103816130c7565b9050919050565b7f437573746f6d657220616c726561647920726567697374657265640000000000600082015250565b6000613140601b83612398565b915061314b8261310a565b602082019050919050565b6000602082019050818103600083015261316f81613133565b905091905056fea2646970667358221220b59b2e62411ea1ebecb33d78e034f25fa56ac1fafe18d92ded7051faf426957764736f6c63430008140033",
  "linkReferences": {},
  "deployedLinkReferences": {}
}