{
  "_format": "hh-sol-artifact-1",
  "contractName": "CoinToken",
  "sourceName": "contracts/CoinToken.sol",
  "abi": [
    {
      "inputs": [
        {
          "internalType": "uint256",
          "name": "_initialSupply",
          "type": "uint256"
        }
      ],
      "stateMutability": "nonpayable",
      "type": "constructor"
    },
    {
      "anonymous": false,
      "inputs": [
        {
          "indexed": true,
          "internalType": "address",
          "name": "owner",
          "type": "address"
        },
        {
          "indexed": true,
          "internalType": "address",
          "name": "spender",
          "type": "address"
        },
        {
          "indexed": false,
          "internalType": "uint256",
          "name": "value",
          "type": "uint256"
        }
      ],
      "name": "Approval",
      "type": "event"
    },
    {
      "anonymous": false,
      "inputs": [
        {
          "indexed": true,
          "internalType": "address",
          "name": "to",
          "type": "address"
        },
        {
          "indexed": false,
          "internalType": "uint256",
          "name": "amount",
          "type": "uint256"
        }
      ],
      "name": "CoinsMinted",
      "type": "event"
    },
    {
      "anonymous": false,
      "inputs": [
        {
          "indexed": true,
          "internalType": "address",
          "name": "from",
          "type": "address"
        },
        {
          "indexed": true,
          "internalType": "address",
          "name": "to",
          "type": "address"
        },
        {
          "indexed": false,
          "internalType": "uint256",
          "name": "value",
          "type": "uint256"
        }
      ],
      "name": "Transfer",
      "type": "event"
    },
    {
      "anonymous": false,
      "inputs": [
        {
          "indexed": true,
          "internalType": "uint256",
          "name": "userId",
          "type": "uint256"
        },
        {
          "indexed": true,
          "internalType": "address",
          "name": "wallet",
          "type": "address"
        }
      ],
      "name": "UserWalletRegistered",
      "type": "event"
    },
    {
      "inputs": [
        {
          "internalType": "address",
          "name": "",
          "type": "address"
        },
        {
          "internalType": "address",
          "name": "",
          "type": "address"
        }
      ],
      "name": "allowance",
      "outputs": [
        {
          "internalType": "uint256",
          "name": "",
          "type": "uint256"
        }
      ],
      "stateMutability": "view",
      "type": "function"
    },
    {
      "inputs": [
        {
          "internalType": "address",
          "name": "spender",
          "type": "address"
        },
        {
          "internalType": "uint256",
          "name": "value",
          "type": "uint256"
        }
      ],
      "name": "approve",
      "outputs": [
        {
          "internalType": "bool",
          "name": "success",
          "type": "bool"
        }
      ],
      "stateMutability": "nonpayable",
      "type": "function"
    },
    {
      "inputs": [
        {
          "internalType": "address",
          "name": "",
          "type": "address"
        }
      ],
      "name": "balanceOf",
      "outputs": [
        {
          "internalType": "uint256",
          "name": "",
          "type": "uint256"
        }
      ],
      "stateMutability": "view",
      "type": "function"
    },
    {
      "inputs": [],
      "name": "decimals",
      "outputs": [
        {
          "internalType": "uint8",
          "name": "",
          "type": "uint8"
        }
      ],
      "stateMutability": "view",
      "type": "function"
    },
    {
      "inputs": [
        {
          "internalType": "address",
          "name": "account",
          "type": "address"
        }
      ],
      "name": "getBalance",
      "outputs": [
        {
          "internalType": "uint256",
          "name": "",
          "type": "uint256"
        }
      ],
      "stateMutability": "view",
      "type": "function"
    },
    {
      "inputs": [
        {
          "internalType": "uint256",
          "name": "userId",
          "type": "uint256"
        }
      ],
      "name": "getUserBalance",
      "outputs": [
        {
          "internalType": "uint256",
          "name": "",
          "type": "uint256"
        }
      ],
      "stateMutability": "view",
      "type": "function"
    },
    {
      "inputs": [
        {
          "internalType": "address",
          "name": "to",
          "type": "address"
        },
        {
          "internalType": "uint256",
          "name": "amount",
          "type": "uint256"
        }
      ],
      "name": "mintCoins",
      "outputs": [],
      "stateMutability": "nonpayable",
      "type": "function"
    },
    {
      "inputs": [],
      "name": "name",
      "outputs": [
        {
          "internalType": "string",
          "name": "",
          "type": "string"
        }
      ],
      "stateMutability": "view",
      "type": "function"
    },
    {
      "inputs": [],
      "name": "owner",
      "outputs": [
        {
          "internalType": "address",
          "name": "",
          "type": "address"
        }
      ],
      "stateMutability": "view",
      "type": "function"
    },
    {
      "inputs": [
        {
          "internalType": "uint256",
          "name": "userId",
          "type": "uint256"
        },
        {
          "internalType": "address",
          "name": "wallet",
          "type": "address"
        }
      ],
      "name": "registerUserWallet",
      "outputs": [],
      "stateMutability": "nonpayable",
      "type": "function"
    },
    {
      "inputs": [],
      "name": "symbol",
      "outputs": [
        {
          "internalType": "string",
          "name": "",
          "type": "string"
        }
      ],
      "stateMutability": "view",
      "type": "function"
    },
    {
      "inputs": [],
      "name": "totalSupply",
      "outputs": [
        {
          "internalType": "uint256",
          "name": "",
          "type": "uint256"
        }
      ],
      "stateMutability": "view",
      "type": "function"
    },
    {
      "inputs": [
        {
          "internalType": "address",
          "name": "to",
          "type": "address"
        },
        {
          "internalType": "uint256",
          "name": "value",
          "type": "uint256"
        }
      ],
      "name": "transfer",
      "outputs": [
        {
          "internalType": "bool",
          "name": "success",
          "type": "bool"
        }
      ],
      "stateMutability": "nonpayable",
      "type": "function"
    },
    {
      "inputs": [
        {
          "internalType": "uint256",
          "name": "toUserId",
          "type": "uint256"
        },
        {
          "internalType": "uint256",
          "name": "amount",
          "type": "uint256"
        }
      ],
      "name": "transferByUserId",
      "outputs": [
        {
          "internalType": "bool",
          "name": "success",
          "type": "bool"
        }
      ],
      "stateMutability": "nonpayable",
      "type": "function"
    },
    {
      "inputs": [
        {
          "internalType": "address",
          "name": "from",
          "type": "address"
        },
        {
          "internalType": "address",
          "name": "to",
          "type": "address"
        },
        {
          "internalType": "uint256",
          "name": "value",
          "type": "uint256"
        }
      ],
      "name": "transferFrom",
      "outputs": [
        {
          "internalType": "bool",
          "name": "success",
          "type": "bool"
        }
      ],
      "stateMutability": "nonpayable",
      "type": "function"
    },
    {
      "inputs": [
        {
          "internalType": "uint256",
          "name": "",
          "type": "uint256"
        }
      ],
      "name": "userWallets",
      "outputs": [
        {
          "internalType": "address",
          "name": "",
          "type": "address"
        }
      ],
      "stateMutability": "view",
      "type": "function"
    },
    {
      "inputs": [
        {
          "internalType": "address",
          "name": "",
          "type": "address"
        }
      ],
      "name": "walletToUserId",
      "outputs": [
        {
          "internalType": "uint256",
          "name": "",
          "type": "uint256"
        }
      ],
      "stateMutability": "view",
      "type": "function"
    }
  ],
  "bytecode": "0x60806040526040518060400160405280600881526020017f53686f70436f696e000000000000000000000000000000000000000000000000815250600090816100489190610407565b506040518060400160405280600481526020017f434f494e000000000000000000000000000000000000000000000000000000008152506001908161008d9190610407565b506012600260006101000a81548160ff021916908360ff1602179055503480156100b657600080fd5b5060405161238d38038061238d83398181016040528101906100d8919061050a565b33600860006101000a81548173ffffffffffffffffffffffffffffffffffffffff021916908373ffffffffffffffffffffffffffffffffffffffff160217905550600260009054906101000a900460ff1660ff16600a6101389190610699565b8161014391906106e4565b60038190555060035460046000600860009054906101000a900473ffffffffffffffffffffffffffffffffffffffff1673ffffffffffffffffffffffffffffffffffffffff1673ffffffffffffffffffffffffffffffffffffffff1681526020019081526020016000208190555050610726565b600081519050919050565b7f4e487b7100000000000000000000000000000000000000000000000000000000600052604160045260246000fd5b7f4e487b7100000000000000000000000000000000000000000000000000000000600052602260045260246000fd5b6000600282049050600182168061023857607f821691505b60208210810361024b5761024a6101f1565b5b50919050565b60008190508160005260206000209050919050565b60006020601f8301049050919050565b600082821b905092915050565b6000600883026102b37fffffffffffffffffffffffffffffffffffffffffffffffffffffffffffffffff82610276565b6102bd8683610276565b95508019841693508086168417925050509392505050565b6000819050919050565b6000819050919050565b60006103046102ff6102fa846102d5565b6102df565b6102d5565b9050919050565b6000819050919050565b61031e836102e9565b61033261032a8261030b565b848454610283565b825550505050565b600090565b61034761033a565b610352818484610315565b505050565b5b818110156103765761036b60008261033f565b600181019050610358565b5050565b601f8211156103bb5761038c81610251565b61039584610266565b810160208510156103a4578190505b6103b86103b085610266565b830182610357565b50505b505050565b600082821c905092915050565b60006103de600019846008026103c0565b1980831691505092915050565b60006103f783836103cd565b9150826002028217905092915050565b610410826101b7565b67ffffffffffffffff811115610429576104286101c2565b5b6104338254610220565b61043e82828561037a565b600060209050601f831160018114610471576000841561045f578287015190505b61046985826103eb565b8655506104d1565b601f19841661047f86610251565b60005b828110156104a757848901518255600182019150602085019450602081019050610482565b868310156104c457848901516104c0601f8916826103cd565b8355505b6001600288020188555050505b505050505050565b600080fd5b6104e7816102d5565b81146104f257600080fd5b50565b600081519050610504816104de565b92915050565b6000602082840312156105205761051f6104d9565b5b600061052e848285016104f5565b91505092915050565b7f4e487b7100000000000000000000000000000000000000000000000000000000600052601160045260246000fd5b60008160011c9050919050565b6000808291508390505b60018511156105bd5780860481111561059957610598610537565b5b60018516156105a85780820291505b80810290506105b685610566565b945061057d565b94509492505050565b6000826105d65760019050610692565b816105e45760009050610692565b81600181146105fa576002811461060457610633565b6001915050610692565b60ff84111561061657610615610537565b5b8360020a91508482111561062d5761062c610537565b5b50610692565b5060208310610133831016604e8410600b84101617156106685782820a90508381111561066357610662610537565b5b610692565b6106758484846001610573565b9250905081840481111561068c5761068b610537565b5b81810290505b9392505050565b60006106a4826102d5565b91506106af836102d5565b92506106dc7fffffffffffffffffffffffffffffffffffffffffffffffffffffffffffffffff84846105c6565b905092915050565b60006106ef826102d5565b91506106fa836102d5565b9250828202610708816102d5565b9150828204841483151761071f5761071e610537565b5b5092915050565b611c58806107356000396000f3fe608060405234801561001057600080fd5b506004361061010b5760003560e01c806370a08231116100a2578063b378b61111610071578063b378b611146102e2578063b388693014610312578063b7fde9da14610342578063dd62ed3e1461035e578063f8b2cb4f1461038e5761010b565b806370a08231146102465780638da5cb5b1461027657806395d89b4114610294578063a9059cbb146102b25761010b565b80632e0c3f3c116100de5780632e0c3f3c146101ac578063313ce567146101dc5780634bb54384146101fa5780634c81aeca1461022a5761010b565b806306fdde0314610110578063095ea7b31461012e57806318160ddd1461015e57806323b872dd1461017c575b600080fd5b6101186103be565b60405161012591906112ee565b60405180910390f35b610148600480360381019061014391906113a9565b61044c565b6040516101559190611404565b60405180910390f35b61016661053e565b604051610173919061142e565b60405180910390f35b61019660048036038101906101919190611449565b610544565b6040516101a39190611404565b60405180910390f35b6101c660048036038101906101c1919061149c565b610836565b6040516101d3919061142e565b60405180910390f35b6101e46108bf565b6040516101f191906114e5565b60405180910390f35b610214600480360381019061020f9190611500565b6108d2565b604051610221919061142e565b60405180910390f35b610244600480360381019061023f919061152d565b6108ea565b005b610260600480360381019061025b9190611500565b610b7c565b60405161026d919061142e565b60405180910390f35b61027e610b94565b60405161028b919061157c565b60405180910390f35b61029c610bba565b6040516102a991906112ee565b60405180910390f35b6102cc60048036038101906102c791906113a9565b610c48565b6040516102d99190611404565b60405180910390f35b6102fc60048036038101906102f7919061149c565b610e55565b604051610309919061157c565b60405180910390f35b61032c60048036038101906103279190611597565b610e88565b6040516103399190611404565b60405180910390f35b61035c600480360381019061035791906113a9565b610f72565b005b610378600480360381019061037391906115d7565b6111c7565b604051610385919061142e565b60405180910390f35b6103a860048036038101906103a39190611500565b6111ec565b6040516103b5919061142e565b60405180910390f35b600080546103cb90611646565b80601f01602080910402602001604051908101604052809291908181526020018280546103f790611646565b80156104445780601f1061041957610100808354040283529160200191610444565b820191906000526020600020905b81548152906001019060200180831161042757829003601f168201915b505050505081565b600081600560003373ffffffffffffffffffffffffffffffffffffffff1673ffffffffffffffffffffffffffffffffffffffff16815260200190815260200160002060008573ffffffffffffffffffffffffffffffffffffffff1673ffffffffffffffffffffffffffffffffffffffff168152602001908152602001600020819055508273ffffffffffffffffffffffffffffffffffffffff163373ffffffffffffffffffffffffffffffffffffffff167f8c5be1e5ebec7d5bd14f71427d1e84f3dd0314c0f7b2291e5b200ac8c7c3b9258460405161052c919061142e565b60405180910390a36001905092915050565b60035481565b6000600460008573ffffffffffffffffffffffffffffffffffffffff1673ffffffffffffffffffffffffffffffffffffffff168152602001908152602001600020548211156105c8576040517f08c379a00000000000000000000000000000000000000000000000000000000081526004016105bf906116c3565b60405180910390fd5b600560008573ffffffffffffffffffffffffffffffffffffffff1673ffffffffffffffffffffffffffffffffffffffff16815260200190815260200160002060003373ffffffffffffffffffffffffffffffffffffffff1673ffffffffffffffffffffffffffffffffffffffff16815260200190815260200160002054821115610687576040517f08c379a000000000000000000000000000000000000000000000000000000000815260040161067e9061172f565b60405180910390fd5b81600460008673ffffffffffffffffffffffffffffffffffffffff1673ffffffffffffffffffffffffffffffffffffffff16815260200190815260200160002060008282546106d6919061177e565b9250508190555081600460008573ffffffffffffffffffffffffffffffffffffffff1673ffffffffffffffffffffffffffffffffffffffff168152602001908152602001600020600082825461072c91906117b2565b9250508190555081600560008673ffffffffffffffffffffffffffffffffffffffff1673ffffffffffffffffffffffffffffffffffffffff16815260200190815260200160002060003373ffffffffffffffffffffffffffffffffffffffff1673ffffffffffffffffffffffffffffffffffffffff16815260200190815260200160002060008282546107bf919061177e565b925050819055508273ffffffffffffffffffffffffffffffffffffffff168473ffffffffffffffffffffffffffffffffffffffff167fddf252ad1be2c89b69c2b068fc378daa952ba7f163c4a11628f55a4df523b3ef84604051610823919061142e565b60405180910390a3600190509392505050565b6000806006600084815260200190815260200160002060009054906101000a900473ffffffffffffffffffffffffffffffffffffffff169050600073ffffffffffffffffffffffffffffffffffffffff168173ffffffffffffffffffffffffffffffffffffffff16036108ad5760009150506108ba565b6108b6816111ec565b9150505b919050565b600260009054906101000a900460ff1681565b60076020528060005260406000206000915090505481565b600860009054906101000a900473ffffffffffffffffffffffffffffffffffffffff1673ffffffffffffffffffffffffffffffffffffffff163373ffffffffffffffffffffffffffffffffffffffff161461097a576040517f08c379a000000000000000000000000000000000000000000000000000000000815260040161097190611832565b60405180910390fd5b600073ffffffffffffffffffffffffffffffffffffffff166006600084815260200190815260200160002060009054906101000a900473ffffffffffffffffffffffffffffffffffffffff1673ffffffffffffffffffffffffffffffffffffffff1614610a1c576040517f08c379a0000000000000000000000000000000000000000000000000000000008152600401610a139061189e565b60405180910390fd5b6000600760008373ffffffffffffffffffffffffffffffffffffffff1673ffffffffffffffffffffffffffffffffffffffff1681526020019081526020016000205414610a9e576040517f08c379a0000000000000000000000000000000000000000000000000000000008152600401610a959061190a565b60405180910390fd5b806006600084815260200190815260200160002060006101000a81548173ffffffffffffffffffffffffffffffffffffffff021916908373ffffffffffffffffffffffffffffffffffffffff16021790555081600760008373ffffffffffffffffffffffffffffffffffffffff1673ffffffffffffffffffffffffffffffffffffffff168152602001908152602001600020819055508073ffffffffffffffffffffffffffffffffffffffff16827fb04cc2462d5c8de5fd0bc2496e82f6938c8374cb7363d1c1ba0b610714fce87f60405160405180910390a35050565b60046020528060005260406000206000915090505481565b600860009054906101000a900473ffffffffffffffffffffffffffffffffffffffff1681565b60018054610bc790611646565b80601f0160208091040260200160405190810160405280929190818152602001828054610bf390611646565b8015610c405780601f10610c1557610100808354040283529160200191610c40565b820191906000526020600020905b815481529060010190602001808311610c2357829003601f168201915b505050505081565b60008073ffffffffffffffffffffffffffffffffffffffff168373ffffffffffffffffffffffffffffffffffffffff1603610cb8576040517f08c379a0000000000000000000000000000000000000000000000000000000008152600401610caf90611976565b60405180910390fd5b81600460003373ffffffffffffffffffffffffffffffffffffffff1673ffffffffffffffffffffffffffffffffffffffff168152602001908152602001600020541015610d3a576040517f08c379a0000000000000000000000000000000000000000000000000000000008152600401610d31906116c3565b60405180910390fd5b81600460003373ffffffffffffffffffffffffffffffffffffffff1673ffffffffffffffffffffffffffffffffffffffff1681526020019081526020016000206000828254610d89919061177e565b9250508190555081600460008573ffffffffffffffffffffffffffffffffffffffff1673ffffffffffffffffffffffffffffffffffffffff1681526020019081526020016000206000828254610ddf91906117b2565b925050819055508273ffffffffffffffffffffffffffffffffffffffff163373ffffffffffffffffffffffffffffffffffffffff167fddf252ad1be2c89b69c2b068fc378daa952ba7f163c4a11628f55a4df523b3ef84604051610e43919061142e565b60405180910390a36001905092915050565b60066020528060005260406000206000915054906101000a900473ffffffffffffffffffffffffffffffffffffffff1681565b6000806006600085815260200190815260200160002060009054906101000a900473ffffffffffffffffffffffffffffffffffffffff169050600073ffffffffffffffffffffffffffffffffffffffff168173ffffffffffffffffffffffffffffffffffffffff1603610f30576040517f08c379a0000000000000000000000000000000000000000000000000000000008152600401610f27906119e2565b60405180910390fd5b6000600260009054906101000a900460ff1660ff16600a610f519190611b35565b84610f5c9190611b80565b9050610f688282610c48565b9250505092915050565b600860009054906101000a900473ffffffffffffffffffffffffffffffffffffffff1673ffffffffffffffffffffffffffffffffffffffff163373ffffffffffffffffffffffffffffffffffffffff1614611002576040517f08c379a0000000000000000000000000000000000000000000000000000000008152600401610ff990611832565b60405180910390fd5b600073ffffffffffffffffffffffffffffffffffffffff168273ffffffffffffffffffffffffffffffffffffffff1603611071576040517f08c379a000000000000000000000000000000000000000000000000000000000815260040161106890611976565b60405180910390fd5b6000600260009054906101000a900460ff1660ff16600a6110929190611b35565b8261109d9190611b80565b905080600460008573ffffffffffffffffffffffffffffffffffffffff1673ffffffffffffffffffffffffffffffffffffffff16815260200190815260200160002060008282546110ee91906117b2565b92505081905550806003600082825461110791906117b2565b925050819055508273ffffffffffffffffffffffffffffffffffffffff167fc9ac6f335722ba5012b311e37c325450961c6e224ea391135b78d95118e190c982604051611154919061142e565b60405180910390a28273ffffffffffffffffffffffffffffffffffffffff16600073ffffffffffffffffffffffffffffffffffffffff167fddf252ad1be2c89b69c2b068fc378daa952ba7f163c4a11628f55a4df523b3ef836040516111ba919061142e565b60405180910390a3505050565b6005602052816000526040600020602052806000526040600020600091509150505481565b6000600260009054906101000a900460ff1660ff16600a61120d9190611b35565b600460008473ffffffffffffffffffffffffffffffffffffffff1673ffffffffffffffffffffffffffffffffffffffff168152602001908152602001600020546112579190611bf1565b9050919050565b600081519050919050565b600082825260208201905092915050565b60005b8381101561129857808201518184015260208101905061127d565b60008484015250505050565b6000601f19601f8301169050919050565b60006112c08261125e565b6112ca8185611269565b93506112da81856020860161127a565b6112e3816112a4565b840191505092915050565b6000602082019050818103600083015261130881846112b5565b905092915050565b600080fd5b600073ffffffffffffffffffffffffffffffffffffffff82169050919050565b600061134082611315565b9050919050565b61135081611335565b811461135b57600080fd5b50565b60008135905061136d81611347565b92915050565b6000819050919050565b61138681611373565b811461139157600080fd5b50565b6000813590506113a38161137d565b92915050565b600080604083850312156113c0576113bf611310565b5b60006113ce8582860161135e565b92505060206113df85828601611394565b9150509250929050565b60008115159050919050565b6113fe816113e9565b82525050565b600060208201905061141960008301846113f5565b92915050565b61142881611373565b82525050565b6000602082019050611443600083018461141f565b92915050565b60008060006060848603121561146257611461611310565b5b60006114708682870161135e565b93505060206114818682870161135e565b925050604061149286828701611394565b9150509250925092565b6000602082840312156114b2576114b1611310565b5b60006114c084828501611394565b91505092915050565b600060ff82169050919050565b6114df816114c9565b82525050565b60006020820190506114fa60008301846114d6565b92915050565b60006020828403121561151657611515611310565b5b60006115248482850161135e565b91505092915050565b6000806040838503121561154457611543611310565b5b600061155285828601611394565b92505060206115638582860161135e565b9150509250929050565b61157681611335565b82525050565b6000602082019050611591600083018461156d565b92915050565b600080604083850312156115ae576115ad611310565b5b60006115bc85828601611394565b92505060206115cd85828601611394565b9150509250929050565b600080604083850312156115ee576115ed611310565b5b60006115fc8582860161135e565b925050602061160d8582860161135e565b9150509250929050565b7f4e487b7100000000000000000000000000000000000000000000000000000000600052602260045260246000fd5b6000600282049050600182168061165e57607f821691505b60208210810361167157611670611617565b5b50919050565b7f496e73756666696369656e742062616c616e6365000000000000000000000000600082015250565b60006116ad601483611269565b91506116b882611677565b602082019050919050565b600060208201905081810360008301526116dc816116a0565b9050919050565b7f496e73756666696369656e7420616c6c6f77616e636500000000000000000000600082015250565b6000611719601683611269565b9150611724826116e3565b602082019050919050565b600060208201905081810360008301526117488161170c565b9050919050565b7f4e487b7100000000000000000000000000000000000000000000000000000000600052601160045260246000fd5b600061178982611373565b915061179483611373565b92508282039050818111156117ac576117ab61174f565b5b92915050565b60006117bd82611373565b91506117c883611373565b92508282019050808211156117e0576117df61174f565b5b92915050565b7f4f6e6c79206f776e65722063616e2063616c6c20746869730000000000000000600082015250565b600061181c601883611269565b9150611827826117e6565b602082019050919050565b6000602082019050818103600083015261184b8161180f565b9050919050565b7f5573657220616c72656164792072656769737465726564000000000000000000600082015250565b6000611888601783611269565b915061189382611852565b602082019050919050565b600060208201905081810360008301526118b78161187b565b9050919050565b7f57616c6c657420616c7265616479207265676973746572656400000000000000600082015250565b60006118f4601983611269565b91506118ff826118be565b602082019050919050565b60006020820190508181036000830152611923816118e7565b9050919050565b7f496e76616c696420616464726573730000000000000000000000000000000000600082015250565b6000611960600f83611269565b915061196b8261192a565b602082019050919050565b6000602082019050818103600083015261198f81611953565b9050919050565b7f55736572206e6f74207265676973746572656400000000000000000000000000600082015250565b60006119cc601383611269565b91506119d782611996565b602082019050919050565b600060208201905081810360008301526119fb816119bf565b9050919050565b60008160011c9050919050565b6000808291508390505b6001851115611a5957808604811115611a3557611a3461174f565b5b6001851615611a445780820291505b8081029050611a5285611a02565b9450611a19565b94509492505050565b600082611a725760019050611b2e565b81611a805760009050611b2e565b8160018114611a965760028114611aa057611acf565b6001915050611b2e565b60ff841115611ab257611ab161174f565b5b8360020a915084821115611ac957611ac861174f565b5b50611b2e565b5060208310610133831016604e8410600b8410161715611b045782820a905083811115611aff57611afe61174f565b5b611b2e565b611b118484846001611a0f565b92509050818404811115611b2857611b2761174f565b5b81810290505b9392505050565b6000611b4082611373565b9150611b4b83611373565b9250611b787fffffffffffffffffffffffffffffffffffffffffffffffffffffffffffffffff8484611a62565b905092915050565b6000611b8b82611373565b9150611b9683611373565b9250828202611ba481611373565b91508282048414831517611bbb57611bba61174f565b5b5092915050565b7f4e487b7100000000000000000000000000000000000000000000000000000000600052601260045260246000fd5b6000611bfc82611373565b9150611c0783611373565b925082611c1757611c16611bc2565b5b82820490509291505056fea264697066735822122046bb7577cdee46dca734dcdaa09db195bb55f7ef6f3d20d57a0b6dc88848d5fa64736f6c634300081c0033",
  "linkReferences": {},
  "deployedLinkReferences": {}
}